{
  "abi": [
    {
      "inputs": [
        {
          "internalType": "uint8",
          "name": "mintFee",
          "type": "uint8"
        },
        {
          "internalType": "address",
          "name": "token",
          "type": "address"
        }
      ],
      "stateMutability": "nonpayable",
      "type": "constructor"
    },
    {
      "inputs": [
        {
          "internalType": "address",
          "name": "sender",
          "type": "address"
        },
        {
          "internalType": "uint256",
          "name": "tokenId",
          "type": "uint256"
        },
        {
          "internalType": "address",
          "name": "owner",
          "type": "address"
        }
      ],
      "name": "ERC721IncorrectOwner",
      "type": "error"
    },
    {
      "inputs": [
        {
          "internalType": "address",
          "name": "operator",
          "type": "address"
        },
        {
          "internalType": "uint256",
          "name": "tokenId",
          "type": "uint256"
        }
      ],
      "name": "ERC721InsufficientApproval",
      "type": "error"
    },
    {
      "inputs": [
        {
          "internalType": "address",
          "name": "approver",
          "type": "address"
        }
      ],
      "name": "ERC721InvalidApprover",
      "type": "error"
    },
    {
      "inputs": [
        {
          "internalType": "address",
          "name": "operator",
          "type": "address"
        }
      ],
      "name": "ERC721InvalidOperator",
      "type": "error"
    },
    {
      "inputs": [
        {
          "internalType": "address",
          "name": "owner",
          "type": "address"
        }
      ],
      "name": "ERC721InvalidOwner",
      "type": "error"
    },
    {
      "inputs": [
        {
          "internalType": "address",
          "name": "receiver",
          "type": "address"
        }
      ],
      "name": "ERC721InvalidReceiver",
      "type": "error"
    },
    {
      "inputs": [
        {
          "internalType": "address",
          "name": "sender",
          "type": "address"
        }
      ],
      "name": "ERC721InvalidSender",
      "type": "error"
    },
    {
      "inputs": [
        {
          "internalType": "uint256",
          "name": "tokenId",
          "type": "uint256"
        }
      ],
      "name": "ERC721NonexistentToken",
      "type": "error"
    },
    {
      "anonymous": false,
      "inputs": [
        {
          "indexed": true,
          "internalType": "address",
          "name": "owner",
          "type": "address"
        },
        {
          "indexed": true,
          "internalType": "address",
          "name": "approved",
          "type": "address"
        },
        {
          "indexed": true,
          "internalType": "uint256",
          "name": "tokenId",
          "type": "uint256"
        }
      ],
      "name": "Approval",
      "type": "event"
    },
    {
      "anonymous": false,
      "inputs": [
        {
          "indexed": true,
          "internalType": "address",
          "name": "owner",
          "type": "address"
        },
        {
          "indexed": true,
          "internalType": "address",
          "name": "operator",
          "type": "address"
        },
        {
          "indexed": false,
          "internalType": "bool",
          "name": "approved",
          "type": "bool"
        }
      ],
      "name": "ApprovalForAll",
      "type": "event"
    },
    {
      "anonymous": false,
      "inputs": [
        {
          "indexed": false,
          "internalType": "uint256",
          "name": "_fromTokenId",
          "type": "uint256"
        },
        {
          "indexed": false,
          "internalType": "uint256",
          "name": "_toTokenId",
          "type": "uint256"
        }
      ],
      "name": "BatchMetadataUpdate",
      "type": "event"
    },
    {
      "anonymous": false,
      "inputs": [
        {
          "indexed": false,
          "internalType": "uint256",
          "name": "_tokenId",
          "type": "uint256"
        }
      ],
      "name": "MetadataUpdate",
      "type": "event"
    },
    {
      "anonymous": false,
      "inputs": [
        {
          "indexed": true,
          "internalType": "address",
          "name": "from",
          "type": "address"
        },
        {
          "indexed": true,
          "internalType": "address",
          "name": "to",
          "type": "address"
        },
        {
          "indexed": true,
          "internalType": "uint256",
          "name": "tokenId",
          "type": "uint256"
        }
      ],
      "name": "Transfer",
      "type": "event"
    },
    {
      "inputs": [
        {
          "internalType": "address",
          "name": "to",
          "type": "address"
        },
        {
          "internalType": "uint256",
          "name": "tokenId",
          "type": "uint256"
        }
      ],
      "name": "approve",
      "outputs": [],
      "stateMutability": "nonpayable",
      "type": "function"
    },
    {
      "inputs": [
        {
          "internalType": "address",
          "name": "owner",
          "type": "address"
        }
      ],
      "name": "balanceOf",
      "outputs": [
        {
          "internalType": "uint256",
          "name": "",
          "type": "uint256"
        }
      ],
      "stateMutability": "view",
      "type": "function"
    },
    {
      "inputs": [
        {
          "internalType": "uint256",
          "name": "tokenId",
          "type": "uint256"
        }
      ],
      "name": "getApproved",
      "outputs": [
        {
          "internalType": "address",
          "name": "",
          "type": "address"
        }
      ],
      "stateMutability": "view",
      "type": "function"
    },
    {
      "inputs": [
        {
          "internalType": "address",
          "name": "owner",
          "type": "address"
        },
        {
          "internalType": "address",
          "name": "operator",
          "type": "address"
        }
      ],
      "name": "isApprovedForAll",
      "outputs": [
        {
          "internalType": "bool",
          "name": "",
          "type": "bool"
        }
      ],
      "stateMutability": "view",
      "type": "function"
    },
    {
      "inputs": [
        {
          "internalType": "address",
          "name": "payer",
          "type": "address"
        },
        {
          "internalType": "string",
          "name": "tokenURI",
          "type": "string"
        }
      ],
      "name": "mintNFTUsingERC20",
      "outputs": [
        {
          "internalType": "uint256",
          "name": "",
          "type": "uint256"
        }
      ],
      "stateMutability": "nonpayable",
      "type": "function"
    },
    {
      "inputs": [],
      "name": "name",
      "outputs": [
        {
          "internalType": "string",
          "name": "",
          "type": "string"
        }
      ],
      "stateMutability": "view",
      "type": "function"
    },
    {
      "inputs": [
        {
          "internalType": "uint256",
          "name": "tokenId",
          "type": "uint256"
        }
      ],
      "name": "ownerOf",
      "outputs": [
        {
          "internalType": "address",
          "name": "",
          "type": "address"
        }
      ],
      "stateMutability": "view",
      "type": "function"
    },
    {
      "inputs": [
        {
          "internalType": "address",
          "name": "from",
          "type": "address"
        },
        {
          "internalType": "address",
          "name": "to",
          "type": "address"
        },
        {
          "internalType": "uint256",
          "name": "tokenId",
          "type": "uint256"
        }
      ],
      "name": "safeTransferFrom",
      "outputs": [],
      "stateMutability": "nonpayable",
      "type": "function"
    },
    {
      "inputs": [
        {
          "internalType": "address",
          "name": "from",
          "type": "address"
        },
        {
          "internalType": "address",
          "name": "to",
          "type": "address"
        },
        {
          "internalType": "uint256",
          "name": "tokenId",
          "type": "uint256"
        },
        {
          "internalType": "bytes",
          "name": "data",
          "type": "bytes"
        }
      ],
      "name": "safeTransferFrom",
      "outputs": [],
      "stateMutability": "nonpayable",
      "type": "function"
    },
    {
      "inputs": [
        {
          "internalType": "address",
          "name": "operator",
          "type": "address"
        },
        {
          "internalType": "bool",
          "name": "approved",
          "type": "bool"
        }
      ],
      "name": "setApprovalForAll",
      "outputs": [],
      "stateMutability": "nonpayable",
      "type": "function"
    },
    {
      "inputs": [
        {
          "internalType": "bytes4",
          "name": "interfaceId",
          "type": "bytes4"
        }
      ],
      "name": "supportsInterface",
      "outputs": [
        {
          "internalType": "bool",
          "name": "",
          "type": "bool"
        }
      ],
      "stateMutability": "view",
      "type": "function"
    },
    {
      "inputs": [],
      "name": "symbol",
      "outputs": [
        {
          "internalType": "string",
          "name": "",
          "type": "string"
        }
      ],
      "stateMutability": "view",
      "type": "function"
    },
    {
      "inputs": [
        {
          "internalType": "uint256",
          "name": "tokenId",
          "type": "uint256"
        }
      ],
      "name": "tokenURI",
      "outputs": [
        {
          "internalType": "string",
          "name": "",
          "type": "string"
        }
      ],
      "stateMutability": "view",
      "type": "function"
    },
    {
      "inputs": [
        {
          "internalType": "address",
          "name": "from",
          "type": "address"
        },
        {
          "internalType": "address",
          "name": "to",
          "type": "address"
        },
        {
          "internalType": "uint256",
          "name": "tokenId",
          "type": "uint256"
        }
      ],
      "name": "transferFrom",
      "outputs": [],
      "stateMutability": "nonpayable",
      "type": "function"
    }
  ],
  "bytecode": {
    "object": "0x60806040523480156200001157600080fd5b506040516200187e3803806200187e8339810160408190526200003491620000fa565b6040518060400160405280600a81526020016914dc1958da585b13919560b21b8152506040518060400160405280600481526020016314d3919560e21b8152508160009081620000859190620001ee565b506001620000948282620001ee565b50506007805460018101825560009182527fa66cc928b5edb82af9bd49922954155ab7b0942694bea4ce44661d9a8736c688015550600880546001600160a01b03909216610100026001600160a81b031990921660ff90931692909217179055620002ba565b600080604083850312156200010e57600080fd5b825160ff811681146200012057600080fd5b60208401519092506001600160a01b03811681146200013e57600080fd5b809150509250929050565b634e487b7160e01b600052604160045260246000fd5b600181811c908216806200017457607f821691505b6020821081036200019557634e487b7160e01b600052602260045260246000fd5b50919050565b601f821115620001e957600081815260208120601f850160051c81016020861015620001c45750805b601f850160051c820191505b81811015620001e557828155600101620001d0565b5050505b505050565b81516001600160401b038111156200020a576200020a62000149565b62000222816200021b84546200015f565b846200019b565b602080601f8311600181146200025a5760008415620002415750858301515b600019600386901b1c1916600185901b178555620001e5565b600085815260208120601f198616915b828110156200028b578886015182559484019460019091019084016200026a565b5085821015620002aa5787850151600019600388901b60f8161c191681555b5050505050600190811b01905550565b6115b480620002ca6000396000f3fe608060405234801561001057600080fd5b50600436106100ea5760003560e01c806370a082311161008c578063b88d4fde11610066578063b88d4fde146101e1578063c87b56dd146101f4578063e985e9c514610207578063fc8db9be1461021a57600080fd5b806370a08231146101a557806395d89b41146101c6578063a22cb465146101ce57600080fd5b8063095ea7b3116100c8578063095ea7b31461015757806323b872dd1461016c57806342842e0e1461017f5780636352211e1461019257600080fd5b806301ffc9a7146100ef57806306fdde0314610117578063081812fc1461012c575b600080fd5b6101026100fd36600461100d565b61022d565b60405190151581526020015b60405180910390f35b61011f610258565b60405161010e919061107a565b61013f61013a36600461108d565b6102ea565b6040516001600160a01b03909116815260200161010e565b61016a6101653660046110c2565b610313565b005b61016a61017a3660046110ec565b610322565b61016a61018d3660046110ec565b6103b2565b61013f6101a036600461108d565b6103d2565b6101b86101b3366004611128565b6103dd565b60405190815260200161010e565b61011f610425565b61016a6101dc366004611151565b610434565b61016a6101ef366004611214565b61043f565b61011f61020236600461108d565b610456565b610102610215366004611290565b610567565b6101b86102283660046112c3565b610595565b60006001600160e01b03198216632483248360e11b148061025257506102528261083c565b92915050565b60606000805461026790611325565b80601f016020809104026020016040519081016040528092919081815260200182805461029390611325565b80156102e05780601f106102b5576101008083540402835291602001916102e0565b820191906000526020600020905b8154815290600101906020018083116102c357829003601f168201915b5050505050905090565b60006102f58261088c565b506000828152600460205260409020546001600160a01b0316610252565b61031e8282336108c5565b5050565b6001600160a01b03821661035157604051633250574960e11b8152600060048201526024015b60405180910390fd5b600061035e8383336108d2565b9050836001600160a01b0316816001600160a01b0316146103ac576040516364283d7b60e01b81526001600160a01b0380861660048301526024820184905282166044820152606401610348565b50505050565b6103cd8383836040518060200160405280600081525061043f565b505050565b60006102528261088c565b60006001600160a01b038216610409576040516322718ad960e21b815260006004820152602401610348565b506001600160a01b031660009081526003602052604090205490565b60606001805461026790611325565b61031e3383836109cb565b61044a848484610322565b6103ac84848484610a6a565b60606104618261088c565b506000828152600660205260408120805461047b90611325565b80601f01602080910402602001604051908101604052809291908181526020018280546104a790611325565b80156104f45780601f106104c9576101008083540402835291602001916104f4565b820191906000526020600020905b8154815290600101906020018083116104d757829003601f168201915b50505050509050600061051260408051602081019091526000815290565b90508051600003610524575092915050565b81511561055657808260405160200161053e92919061135f565b60405160208183030381529060405292505050919050565b61055f84610b93565b949350505050565b6001600160a01b03918216600090815260056020908152604080832093909416825291909152205460ff1690565b6008546040516370a0823160e01b81526001600160a01b03848116600483015260009260ff811692610100909104909116906370a0823190602401602060405180830381865afa1580156105ed573d6000803e3d6000fd5b505050506040513d601f19601f82011682018060405250810190610611919061138e565b101561065f5760405162461bcd60e51b815260206004820152601960248201527f496e737566666965636e7420546f6b656e2042616c616e6365000000000000006044820152606401610348565b600854604051636eb1769f60e11b81526001600160a01b03858116600483015230602483015260ff8316926101009004169063dd62ed3e90604401602060405180830381865afa1580156106b7573d6000803e3d6000fd5b505050506040513d601f19601f820116820180604052508101906106db919061138e565b10156107295760405162461bcd60e51b815260206004820152601c60248201527f496e73756666696369656e7420546f6b656e20416c6c6f77616e6365000000006044820152606401610348565b6008546040516323b872dd60e01b81526001600160a01b03858116600483015230602483015260ff83166044830152610100909204909116906323b872dd906064016020604051808303816000875af115801561078a573d6000803e3d6000fd5b505050506040513d601f19601f820116820180604052508101906107ae91906113a7565b5060078054600091906107c3906001906113da565b815481106107d3576107d36113ed565b906000526020600020015460016107ea9190611403565b600780546001810182556000919091527fa66cc928b5edb82af9bd49922954155ab7b0942694bea4ce44661d9a8736c68801819055905061082b8482610c07565b6108358184610c6c565b9392505050565b60006001600160e01b031982166380ac58cd60e01b148061086d57506001600160e01b03198216635b5e139f60e01b145b8061025257506301ffc9a760e01b6001600160e01b0319831614610252565b6000818152600260205260408120546001600160a01b03168061025257604051637e27328960e01b815260048101849052602401610348565b6103cd8383836001610cbc565b6000828152600260205260408120546001600160a01b03908116908316156108ff576108ff818486610dc2565b6001600160a01b0381161561093d5761091c600085600080610cbc565b6001600160a01b038116600090815260036020526040902080546000190190555b6001600160a01b0385161561096c576001600160a01b0385166000908152600360205260409020805460010190555b60008481526002602052604080822080546001600160a01b0319166001600160a01b0389811691821790925591518793918516917fddf252ad1be2c89b69c2b068fc378daa952ba7f163c4a11628f55a4df523b3ef91a4949350505050565b6001600160a01b0382166109fd57604051630b61174360e31b81526001600160a01b0383166004820152602401610348565b6001600160a01b03838116600081815260056020908152604080832094871680845294825291829020805460ff191686151590811790915591519182527f17307eab39ab6107e8899845ad3d59bd9653f200f220920489ca2b5937696c31910160405180910390a3505050565b6001600160a01b0383163b156103ac57604051630a85bd0160e11b81526001600160a01b0384169063150b7a0290610aac903390889087908790600401611416565b6020604051808303816000875af1925050508015610ae7575060408051601f3d908101601f19168201909252610ae491810190611453565b60015b610b50573d808015610b15576040519150601f19603f3d011682016040523d82523d6000602084013e610b1a565b606091505b508051600003610b4857604051633250574960e11b81526001600160a01b0385166004820152602401610348565b805181602001fd5b6001600160e01b03198116630a85bd0160e11b14610b8c57604051633250574960e11b81526001600160a01b0385166004820152602401610348565b5050505050565b6060610b9e8261088c565b506000610bb660408051602081019091526000815290565b90506000815111610bd65760405180602001604052806000815250610835565b80610be084610e26565b604051602001610bf192919061135f565b6040516020818303038152906040529392505050565b6001600160a01b038216610c3157604051633250574960e11b815260006004820152602401610348565b6000610c3f838360006108d2565b90506001600160a01b038116156103cd576040516339e3563760e11b815260006004820152602401610348565b6000828152600660205260409020610c8482826114be565b506040518281527ff8e1a15aba9398e019f0b49df1a4fde98ee17ae345cb5f6b5e2c27f5033e8ce79060200160405180910390a15050565b8080610cd057506001600160a01b03821615155b15610d92576000610ce08461088c565b90506001600160a01b03831615801590610d0c5750826001600160a01b0316816001600160a01b031614155b8015610d1f5750610d1d8184610567565b155b15610d485760405163a9fbf51f60e01b81526001600160a01b0384166004820152602401610348565b8115610d905783856001600160a01b0316826001600160a01b03167f8c5be1e5ebec7d5bd14f71427d1e84f3dd0314c0f7b2291e5b200ac8c7c3b92560405160405180910390a45b505b5050600090815260046020526040902080546001600160a01b0319166001600160a01b0392909216919091179055565b610dcd838383610eb9565b6103cd576001600160a01b038316610dfb57604051637e27328960e01b815260048101829052602401610348565b60405163177e802f60e01b81526001600160a01b038316600482015260248101829052604401610348565b60606000610e3383610f1c565b600101905060008167ffffffffffffffff811115610e5357610e53611188565b6040519080825280601f01601f191660200182016040528015610e7d576020820181803683370190505b5090508181016020015b600019016f181899199a1a9b1b9c1cb0b131b232b360811b600a86061a8153600a8504945084610e8757509392505050565b60006001600160a01b0383161580159061055f5750826001600160a01b0316846001600160a01b03161480610ef35750610ef38484610567565b8061055f5750506000908152600460205260409020546001600160a01b03908116911614919050565b60008072184f03e93ff9f4daa797ed6e38ed64bf6a1f0160401b8310610f5b5772184f03e93ff9f4daa797ed6e38ed64bf6a1f0160401b830492506040015b6d04ee2d6d415b85acef81000000008310610f87576d04ee2d6d415b85acef8100000000830492506020015b662386f26fc100008310610fa557662386f26fc10000830492506010015b6305f5e1008310610fbd576305f5e100830492506008015b6127108310610fd157612710830492506004015b60648310610fe3576064830492506002015b600a83106102525760010192915050565b6001600160e01b03198116811461100a57600080fd5b50565b60006020828403121561101f57600080fd5b813561083581610ff4565b60005b8381101561104557818101518382015260200161102d565b50506000910152565b6000815180845261106681602086016020860161102a565b601f01601f19169290920160200192915050565b602081526000610835602083018461104e565b60006020828403121561109f57600080fd5b5035919050565b80356001600160a01b03811681146110bd57600080fd5b919050565b600080604083850312156110d557600080fd5b6110de836110a6565b946020939093013593505050565b60008060006060848603121561110157600080fd5b61110a846110a6565b9250611118602085016110a6565b9150604084013590509250925092565b60006020828403121561113a57600080fd5b610835826110a6565b801515811461100a57600080fd5b6000806040838503121561116457600080fd5b61116d836110a6565b9150602083013561117d81611143565b809150509250929050565b634e487b7160e01b600052604160045260246000fd5b600067ffffffffffffffff808411156111b9576111b9611188565b604051601f8501601f19908116603f011681019082821181831017156111e1576111e1611188565b816040528093508581528686860111156111fa57600080fd5b858560208301376000602087830101525050509392505050565b6000806000806080858703121561122a57600080fd5b611233856110a6565b9350611241602086016110a6565b925060408501359150606085013567ffffffffffffffff81111561126457600080fd5b8501601f8101871361127557600080fd5b6112848782356020840161119e565b91505092959194509250565b600080604083850312156112a357600080fd5b6112ac836110a6565b91506112ba602084016110a6565b90509250929050565b600080604083850312156112d657600080fd5b6112df836110a6565b9150602083013567ffffffffffffffff8111156112fb57600080fd5b8301601f8101851361130c57600080fd5b61131b8582356020840161119e565b9150509250929050565b600181811c9082168061133957607f821691505b60208210810361135957634e487b7160e01b600052602260045260246000fd5b50919050565b6000835161137181846020880161102a565b83519083019061138581836020880161102a565b01949350505050565b6000602082840312156113a057600080fd5b5051919050565b6000602082840312156113b957600080fd5b815161083581611143565b634e487b7160e01b600052601160045260246000fd5b81810381811115610252576102526113c4565b634e487b7160e01b600052603260045260246000fd5b80820180821115610252576102526113c4565b6001600160a01b03858116825284166020820152604081018390526080606082018190526000906114499083018461104e565b9695505050505050565b60006020828403121561146557600080fd5b815161083581610ff4565b601f8211156103cd57600081815260208120601f850160051c810160208610156114975750805b601f850160051c820191505b818110156114b6578281556001016114a3565b505050505050565b815167ffffffffffffffff8111156114d8576114d8611188565b6114ec816114e68454611325565b84611470565b602080601f83116001811461152157600084156115095750858301515b600019600386901b1c1916600185901b1785556114b6565b600085815260208120601f198616915b8281101561155057888601518255948401946001909101908401611531565b508582101561156e5787850151600019600388901b60f8161c191681555b5050505050600190811b0190555056fea26469706673582212200d3b6e7bfbfdf604a491d8e0047f3b44b82b8cfc399ac48affc2187620a121c164736f6c63430008150033",
    "linkReferences": {}
  },
  "methodIdentifiers": {
    "approve(address,uint256)": "095ea7b3",
    "balanceOf(address)": "70a08231",
    "getApproved(uint256)": "081812fc",
    "isApprovedForAll(address,address)": "e985e9c5",
    "mintNFTUsingERC20(address,string)": "fc8db9be",
    "name()": "06fdde03",
    "ownerOf(uint256)": "6352211e",
    "safeTransferFrom(address,address,uint256)": "42842e0e",
    "safeTransferFrom(address,address,uint256,bytes)": "b88d4fde",
    "setApprovalForAll(address,bool)": "a22cb465",
    "supportsInterface(bytes4)": "01ffc9a7",
    "symbol()": "95d89b41",
    "tokenURI(uint256)": "c87b56dd",
    "transferFrom(address,address,uint256)": "23b872dd"
  },
  "id": 38
}