{
  "abi": [
    {
      "inputs": [
        {
          "internalType": "uint256",
          "name": "totalSupply",
          "type": "uint256"
        }
      ],
      "stateMutability": "nonpayable",
      "type": "constructor"
    },
    {
      "inputs": [
        {
          "internalType": "address",
          "name": "spender",
          "type": "address"
        },
        {
          "internalType": "uint256",
          "name": "allowance",
          "type": "uint256"
        },
        {
          "internalType": "uint256",
          "name": "needed",
          "type": "uint256"
        }
      ],
      "name": "ERC20InsufficientAllowance",
      "type": "error"
    },
    {
      "inputs": [
        {
          "internalType": "address",
          "name": "sender",
          "type": "address"
        },
        {
          "internalType": "uint256",
          "name": "balance",
          "type": "uint256"
        },
        {
          "internalType": "uint256",
          "name": "needed",
          "type": "uint256"
        }
      ],
      "name": "ERC20InsufficientBalance",
      "type": "error"
    },
    {
      "inputs": [
        {
          "internalType": "address",
          "name": "approver",
          "type": "address"
        }
      ],
      "name": "ERC20InvalidApprover",
      "type": "error"
    },
    {
      "inputs": [
        {
          "internalType": "address",
          "name": "receiver",
          "type": "address"
        }
      ],
      "name": "ERC20InvalidReceiver",
      "type": "error"
    },
    {
      "inputs": [
        {
          "internalType": "address",
          "name": "sender",
          "type": "address"
        }
      ],
      "name": "ERC20InvalidSender",
      "type": "error"
    },
    {
      "inputs": [
        {
          "internalType": "address",
          "name": "spender",
          "type": "address"
        }
      ],
      "name": "ERC20InvalidSpender",
      "type": "error"
    },
    {
      "anonymous": false,
      "inputs": [
        {
          "indexed": true,
          "internalType": "address",
          "name": "owner",
          "type": "address"
        },
        {
          "indexed": true,
          "internalType": "address",
          "name": "spender",
          "type": "address"
        },
        {
          "indexed": false,
          "internalType": "uint256",
          "name": "value",
          "type": "uint256"
        }
      ],
      "name": "Approval",
      "type": "event"
    },
    {
      "anonymous": false,
      "inputs": [
        {
          "indexed": true,
          "internalType": "address",
          "name": "from",
          "type": "address"
        },
        {
          "indexed": true,
          "internalType": "address",
          "name": "to",
          "type": "address"
        },
        {
          "indexed": false,
          "internalType": "uint256",
          "name": "value",
          "type": "uint256"
        }
      ],
      "name": "Transfer",
      "type": "event"
    },
    {
      "inputs": [
        {
          "internalType": "address",
          "name": "owner",
          "type": "address"
        },
        {
          "internalType": "address",
          "name": "spender",
          "type": "address"
        }
      ],
      "name": "allowance",
      "outputs": [
        {
          "internalType": "uint256",
          "name": "",
          "type": "uint256"
        }
      ],
      "stateMutability": "view",
      "type": "function"
    },
    {
      "inputs": [
        {
          "internalType": "address",
          "name": "spender",
          "type": "address"
        },
        {
          "internalType": "uint256",
          "name": "value",
          "type": "uint256"
        }
      ],
      "name": "approve",
      "outputs": [
        {
          "internalType": "bool",
          "name": "",
          "type": "bool"
        }
      ],
      "stateMutability": "nonpayable",
      "type": "function"
    },
    {
      "inputs": [
        {
          "internalType": "address",
          "name": "account",
          "type": "address"
        }
      ],
      "name": "balanceOf",
      "outputs": [
        {
          "internalType": "uint256",
          "name": "",
          "type": "uint256"
        }
      ],
      "stateMutability": "view",
      "type": "function"
    },
    {
      "inputs": [],
      "name": "decimals",
      "outputs": [
        {
          "internalType": "uint8",
          "name": "",
          "type": "uint8"
        }
      ],
      "stateMutability": "view",
      "type": "function"
    },
    {
      "inputs": [],
      "name": "name",
      "outputs": [
        {
          "internalType": "string",
          "name": "",
          "type": "string"
        }
      ],
      "stateMutability": "view",
      "type": "function"
    },
    {
      "inputs": [],
      "name": "symbol",
      "outputs": [
        {
          "internalType": "string",
          "name": "",
          "type": "string"
        }
      ],
      "stateMutability": "view",
      "type": "function"
    },
    {
      "inputs": [],
      "name": "tokenFaucet",
      "outputs": [],
      "stateMutability": "nonpayable",
      "type": "function"
    },
    {
      "inputs": [],
      "name": "totalSupply",
      "outputs": [
        {
          "internalType": "uint256",
          "name": "",
          "type": "uint256"
        }
      ],
      "stateMutability": "view",
      "type": "function"
    },
    {
      "inputs": [
        {
          "internalType": "address",
          "name": "to",
          "type": "address"
        },
        {
          "internalType": "uint256",
          "name": "value",
          "type": "uint256"
        }
      ],
      "name": "transfer",
      "outputs": [
        {
          "internalType": "bool",
          "name": "",
          "type": "bool"
        }
      ],
      "stateMutability": "nonpayable",
      "type": "function"
    },
    {
      "inputs": [
        {
          "internalType": "address",
          "name": "from",
          "type": "address"
        },
        {
          "internalType": "address",
          "name": "to",
          "type": "address"
        },
        {
          "internalType": "uint256",
          "name": "value",
          "type": "uint256"
        }
      ],
      "name": "transferFrom",
      "outputs": [
        {
          "internalType": "bool",
          "name": "",
          "type": "bool"
        }
      ],
      "stateMutability": "nonpayable",
      "type": "function"
    }
  ],
  "bytecode": {
    "object": "0x60806040523480156200001157600080fd5b5060405162000b5d38038062000b5d83398101604081905262000034916200021d565b604051806040016040528060018152602001601560fa1b815250604051806040016040528060058152602001642a37b5b2b760d91b81525081600390816200007d9190620002dc565b5060046200008c8282620002dc565b505050620000a13382620000a860201b60201c565b50620003d0565b6001600160a01b038216620000d85760405163ec442f0560e01b8152600060048201526024015b60405180910390fd5b620000e660008383620000ea565b5050565b6001600160a01b038316620001195780600260008282546200010d9190620003a8565b909155506200018d9050565b6001600160a01b038316600090815260208190526040902054818110156200016e5760405163391434e360e21b81526001600160a01b03851660048201526024810182905260448101839052606401620000cf565b6001600160a01b03841660009081526020819052604090209082900390555b6001600160a01b038216620001ab57600280548290039055620001ca565b6001600160a01b03821660009081526020819052604090208054820190555b816001600160a01b0316836001600160a01b03167fddf252ad1be2c89b69c2b068fc378daa952ba7f163c4a11628f55a4df523b3ef836040516200021091815260200190565b60405180910390a3505050565b6000602082840312156200023057600080fd5b5051919050565b634e487b7160e01b600052604160045260246000fd5b600181811c908216806200026257607f821691505b6020821081036200028357634e487b7160e01b600052602260045260246000fd5b50919050565b601f821115620002d757600081815260208120601f850160051c81016020861015620002b25750805b601f850160051c820191505b81811015620002d357828155600101620002be565b5050505b505050565b81516001600160401b03811115620002f857620002f862000237565b62000310816200030984546200024d565b8462000289565b602080601f8311600181146200034857600084156200032f5750858301515b600019600386901b1c1916600185901b178555620002d3565b600085815260208120601f198616915b82811015620003795788860151825594840194600190910190840162000358565b5085821015620003985787850151600019600388901b60f8161c191681555b5050505050600190811b01905550565b80820180821115620003ca57634e487b7160e01b600052601160045260246000fd5b92915050565b61077d80620003e06000396000f3fe608060405234801561001057600080fd5b506004361061009e5760003560e01c806370a082311161006657806370a082311461011857806389eb068a1461014157806395d89b411461014b578063a9059cbb14610153578063dd62ed3e1461016657600080fd5b806306fdde03146100a3578063095ea7b3146100c157806318160ddd146100e457806323b872dd146100f6578063313ce56714610109575b600080fd5b6100ab61019f565b6040516100b891906105c7565b60405180910390f35b6100d46100cf366004610631565b610231565b60405190151581526020016100b8565b6002545b6040519081526020016100b8565b6100d461010436600461065b565b61024b565b604051601281526020016100b8565b6100e8610126366004610697565b6001600160a01b031660009081526020819052604090205490565b61014961026f565b005b6100ab61027d565b6100d4610161366004610631565b61028c565b6100e86101743660046106b9565b6001600160a01b03918216600090815260016020908152604080832093909416825291909152205490565b6060600380546101ae906106ec565b80601f01602080910402602001604051908101604052809291908181526020018280546101da906106ec565b80156102275780601f106101fc57610100808354040283529160200191610227565b820191906000526020600020905b81548152906001019060200180831161020a57829003601f168201915b5050505050905090565b60003361023f81858561029a565b60019150505b92915050565b6000336102598582856102ac565b61026485858561032f565b506001949350505050565b61027b336103e861038e565b565b6060600480546101ae906106ec565b60003361023f81858561032f565b6102a783838360016103c8565b505050565b6001600160a01b038381166000908152600160209081526040808320938616835292905220546000198114610329578181101561031a57604051637dc7a0d960e11b81526001600160a01b038416600482015260248101829052604481018390526064015b60405180910390fd5b610329848484840360006103c8565b50505050565b6001600160a01b03831661035957604051634b637e8f60e11b815260006004820152602401610311565b6001600160a01b0382166103835760405163ec442f0560e01b815260006004820152602401610311565b6102a783838361049d565b6001600160a01b0382166103b85760405163ec442f0560e01b815260006004820152602401610311565b6103c46000838361049d565b5050565b6001600160a01b0384166103f25760405163e602df0560e01b815260006004820152602401610311565b6001600160a01b03831661041c57604051634a1406b160e11b815260006004820152602401610311565b6001600160a01b038085166000908152600160209081526040808320938716835292905220829055801561032957826001600160a01b0316846001600160a01b03167f8c5be1e5ebec7d5bd14f71427d1e84f3dd0314c0f7b2291e5b200ac8c7c3b9258460405161048f91815260200190565b60405180910390a350505050565b6001600160a01b0383166104c85780600260008282546104bd9190610726565b9091555061053a9050565b6001600160a01b0383166000908152602081905260409020548181101561051b5760405163391434e360e21b81526001600160a01b03851660048201526024810182905260448101839052606401610311565b6001600160a01b03841660009081526020819052604090209082900390555b6001600160a01b03821661055657600280548290039055610575565b6001600160a01b03821660009081526020819052604090208054820190555b816001600160a01b0316836001600160a01b03167fddf252ad1be2c89b69c2b068fc378daa952ba7f163c4a11628f55a4df523b3ef836040516105ba91815260200190565b60405180910390a3505050565b600060208083528351808285015260005b818110156105f4578581018301518582016040015282016105d8565b506000604082860101526040601f19601f8301168501019250505092915050565b80356001600160a01b038116811461062c57600080fd5b919050565b6000806040838503121561064457600080fd5b61064d83610615565b946020939093013593505050565b60008060006060848603121561067057600080fd5b61067984610615565b925061068760208501610615565b9150604084013590509250925092565b6000602082840312156106a957600080fd5b6106b282610615565b9392505050565b600080604083850312156106cc57600080fd5b6106d583610615565b91506106e360208401610615565b90509250929050565b600181811c9082168061070057607f821691505b60208210810361072057634e487b7160e01b600052602260045260246000fd5b50919050565b8082018082111561024557634e487b7160e01b600052601160045260246000fdfea26469706673582212209e40623deadad6cb1bb5fd11fc7667e0627909b08302415485c6aabaefa6f3c064736f6c63430008150033",
    "linkReferences": {}
  },
  "methodIdentifiers": {
    "allowance(address,address)": "dd62ed3e",
    "approve(address,uint256)": "095ea7b3",
    "balanceOf(address)": "70a08231",
    "decimals()": "313ce567",
    "name()": "06fdde03",
    "symbol()": "95d89b41",
    "tokenFaucet()": "89eb068a",
    "totalSupply()": "18160ddd",
    "transfer(address,uint256)": "a9059cbb",
    "transferFrom(address,address,uint256)": "23b872dd"
  },
  "id": 39
}